{
  "_format": "hh-sol-artifact-1",
  "contractName": "PetShopV2",
  "sourceName": "contracts/PetShopV2.sol",
  "abi": [
    {
      "anonymous": false,
      "inputs": [
        {
          "indexed": true,
          "internalType": "address",
          "name": "from",
          "type": "address"
        },
        {
          "indexed": true,
          "internalType": "address",
          "name": "to",
          "type": "address"
        },
        {
          "indexed": false,
          "internalType": "uint256",
          "name": "value",
          "type": "uint256"
        }
      ],
      "name": "TransferEvent",
      "type": "event"
    },
    {
      "inputs": [
        {
          "internalType": "uint256",
          "name": "petId",
          "type": "uint256"
        },
        {
          "internalType": "address",
          "name": "adoptedAddr",
          "type": "address"
        }
      ],
      "name": "adopt",
      "outputs": [],
      "stateMutability": "payable",
      "type": "function"
    },
    {
      "inputs": [
        {
          "internalType": "uint256",
          "name": "",
          "type": "uint256"
        }
      ],
      "name": "adoptedPets",
      "outputs": [
        {
          "internalType": "uint256",
          "name": "",
          "type": "uint256"
        }
      ],
      "stateMutability": "view",
      "type": "function"
    },
    {
      "inputs": [],
      "name": "getAdoptedPets",
      "outputs": [
        {
          "internalType": "uint256[]",
          "name": "",
          "type": "uint256[]"
        }
      ],
      "stateMutability": "view",
      "type": "function"
    },
    {
      "inputs": [],
      "name": "getBalance",
      "outputs": [
        {
          "internalType": "uint256",
          "name": "",
          "type": "uint256"
        }
      ],
      "stateMutability": "view",
      "type": "function"
    },
    {
      "inputs": [
        {
          "internalType": "uint256",
          "name": "petId",
          "type": "uint256"
        }
      ],
      "name": "isAdopted",
      "outputs": [
        {
          "internalType": "bool",
          "name": "",
          "type": "bool"
        }
      ],
      "stateMutability": "view",
      "type": "function"
    },
    {
      "inputs": [],
      "name": "name",
      "outputs": [
        {
          "internalType": "string",
          "name": "",
          "type": "string"
        }
      ],
      "stateMutability": "view",
      "type": "function"
    },
    {
      "inputs": [],
      "name": "owner",
      "outputs": [
        {
          "internalType": "address payable",
          "name": "",
          "type": "address"
        }
      ],
      "stateMutability": "view",
      "type": "function"
    },
    {
      "inputs": [
        {
          "internalType": "string",
          "name": "_name",
          "type": "string"
        }
      ],
      "name": "setName",
      "outputs": [
        {
          "internalType": "bool",
          "name": "",
          "type": "bool"
        }
      ],
      "stateMutability": "nonpayable",
      "type": "function"
    },
    {
      "inputs": [],
      "name": "setOwner",
      "outputs": [],
      "stateMutability": "nonpayable",
      "type": "function"
    },
    {
      "inputs": [
        {
          "internalType": "address payable",
          "name": "to",
          "type": "address"
        },
        {
          "internalType": "uint256",
          "name": "amount",
          "type": "uint256"
        }
      ],
      "name": "transfer",
      "outputs": [],
      "stateMutability": "nonpayable",
      "type": "function"
    },
    {
      "inputs": [],
      "name": "withDraw",
      "outputs": [],
      "stateMutability": "nonpayable",
      "type": "function"
    }
  ],
  "bytecode": "0x608060405234801561001057600080fd5b506114cb806100206000396000f3fe60806040526004361061009c5760003560e01c806340caae061161006457806340caae0614610155578063535a30e41461016c5780637541475f146101a95780638da5cb5b146101e6578063a9059cbb14610211578063c47f00271461023a5761009c565b80630689093d146100a157806306fdde03146100bd5780630f46bdb1146100e85780630fdb1c101461011357806312065fe01461012a575b600080fd5b6100bb60048036038101906100b69190610aa0565b610277565b005b3480156100c957600080fd5b506100d261041a565b6040516100df9190610b70565b60405180910390f35b3480156100f457600080fd5b506100fd6104a8565b60405161010a9190610c50565b60405180910390f35b34801561011f57600080fd5b50610128610500565b005b34801561013657600080fd5b5061013f610614565b60405161014c9190610c81565b60405180910390f35b34801561016157600080fd5b5061016a61061c565b005b34801561017857600080fd5b50610193600480360381019061018e9190610c9c565b6106a4565b6040516101a09190610c81565b60405180910390f35b3480156101b557600080fd5b506101d060048036038101906101cb9190610c9c565b6106c8565b6040516101dd9190610ce4565b60405180910390f35b3480156101f257600080fd5b506101fb6106f5565b6040516102089190610d20565b60405180910390f35b34801561021d57600080fd5b5061023860048036038101906102339190610d67565b61071b565b005b34801561024657600080fd5b50610261600480360381019061025c9190610edc565b6108d5565b60405161026e9190610ce4565b60405180910390f35b60008210156102bb576040517f08c379a00000000000000000000000000000000000000000000000000000000081526004016102b290610f71565b60405180910390fd5b60405180604001604052808273ffffffffffffffffffffffffffffffffffffffff168152602001600115158152506002600084815260200190815260200160002060008201518160000160006101000a81548173ffffffffffffffffffffffffffffffffffffffff021916908373ffffffffffffffffffffffffffffffffffffffff16021790555060208201518160000160146101000a81548160ff0219169083151502179055509050506003829080600181540180825580915050600190039060005260206000200160009091909190915055600160009054906101000a900473ffffffffffffffffffffffffffffffffffffffff1673ffffffffffffffffffffffffffffffffffffffff168173ffffffffffffffffffffffffffffffffffffffff167feaf1c4b3ce0f4f62a2bae7eb3e68225c75f7e6ff4422073b7437b9a78d25f1708460405161040e9190610c81565b60405180910390a35050565b6000805461042790610fc0565b80601f016020809104026020016040519081016040528092919081815260200182805461045390610fc0565b80156104a05780601f10610475576101008083540402835291602001916104a0565b820191906000526020600020905b81548152906001019060200180831161048357829003601f168201915b505050505081565b606060038054806020026020016040519081016040528092919081815260200182805480156104f657602002820191906000526020600020905b8154815260200190600101908083116104e2575b5050505050905090565b60004711610543576040517f08c379a000000000000000000000000000000000000000000000000000000000815260040161053a9061103d565b60405180910390fd5b6000600160009054906101000a900473ffffffffffffffffffffffffffffffffffffffff1673ffffffffffffffffffffffffffffffffffffffff164760405161058b9061108e565b60006040518083038185875af1925050503d80600081146105c8576040519150601f19603f3d011682016040523d82523d6000602084013e6105cd565b606091505b5050905080610611576040517f08c379a0000000000000000000000000000000000000000000000000000000008152600401610608906110ef565b60405180910390fd5b50565b600047905090565b6040518060400160405280601081526020017f44657669652773205065742053686f70000000000000000000000000000000008152506000908161066091906112bb565b5033600160006101000a81548173ffffffffffffffffffffffffffffffffffffffff021916908373ffffffffffffffffffffffffffffffffffffffff160217905550565b600381815481106106b457600080fd5b906000526020600020016000915090505481565b60006002600083815260200190815260200160002060000160149054906101000a900460ff169050919050565b600160009054906101000a900473ffffffffffffffffffffffffffffffffffffffff1681565b6000471161075e576040517f08c379a00000000000000000000000000000000000000000000000000000000081526004016107559061103d565b60405180910390fd5b60008273ffffffffffffffffffffffffffffffffffffffff16826040516107849061108e565b60006040518083038185875af1925050503d80600081146107c1576040519150601f19603f3d011682016040523d82523d6000602084013e6107c6565b606091505b505090506108096040518060400160405280600a81526020017f726573756c743a2025730000000000000000000000000000000000000000000081525082610933565b80610849576040517f08c379a0000000000000000000000000000000000000000000000000000000008152600401610840906113d9565b60405180910390fd5b8273ffffffffffffffffffffffffffffffffffffffff16600160009054906101000a900473ffffffffffffffffffffffffffffffffffffffff1673ffffffffffffffffffffffffffffffffffffffff167feaf1c4b3ce0f4f62a2bae7eb3e68225c75f7e6ff4422073b7437b9a78d25f170846040516108c89190610c81565b60405180910390a3505050565b60008082511161091a576040517f08c379a000000000000000000000000000000000000000000000000000000000815260040161091190611445565b60405180910390fd5b816000908161092991906112bb565b5060019050919050565b6109cb8282604051602401610949929190611465565b6040516020818303038152906040527fc3b55635000000000000000000000000000000000000000000000000000000007bffffffffffffffffffffffffffffffffffffffffffffffffffffffff19166020820180517bffffffffffffffffffffffffffffffffffffffffffffffffffffffff83818316178352505050506109cf565b5050565b60008151905060006a636f6e736f6c652e6c6f679050602083016000808483855afa5050505050565b6000604051905090565b600080fd5b600080fd5b6000819050919050565b610a1f81610a0c565b8114610a2a57600080fd5b50565b600081359050610a3c81610a16565b92915050565b600073ffffffffffffffffffffffffffffffffffffffff82169050919050565b6000610a6d82610a42565b9050919050565b610a7d81610a62565b8114610a8857600080fd5b50565b600081359050610a9a81610a74565b92915050565b60008060408385031215610ab757610ab6610a02565b5b6000610ac585828601610a2d565b9250506020610ad685828601610a8b565b9150509250929050565b600081519050919050565b600082825260208201905092915050565b60005b83811015610b1a578082015181840152602081019050610aff565b60008484015250505050565b6000601f19601f8301169050919050565b6000610b4282610ae0565b610b4c8185610aeb565b9350610b5c818560208601610afc565b610b6581610b26565b840191505092915050565b60006020820190508181036000830152610b8a8184610b37565b905092915050565b600081519050919050565b600082825260208201905092915050565b6000819050602082019050919050565b610bc781610a0c565b82525050565b6000610bd98383610bbe565b60208301905092915050565b6000602082019050919050565b6000610bfd82610b92565b610c078185610b9d565b9350610c1283610bae565b8060005b83811015610c43578151610c2a8882610bcd565b9750610c3583610be5565b925050600181019050610c16565b5085935050505092915050565b60006020820190508181036000830152610c6a8184610bf2565b905092915050565b610c7b81610a0c565b82525050565b6000602082019050610c966000830184610c72565b92915050565b600060208284031215610cb257610cb1610a02565b5b6000610cc084828501610a2d565b91505092915050565b60008115159050919050565b610cde81610cc9565b82525050565b6000602082019050610cf96000830184610cd5565b92915050565b6000610d0a82610a42565b9050919050565b610d1a81610cff565b82525050565b6000602082019050610d356000830184610d11565b92915050565b610d4481610cff565b8114610d4f57600080fd5b50565b600081359050610d6181610d3b565b92915050565b60008060408385031215610d7e57610d7d610a02565b5b6000610d8c85828601610d52565b9250506020610d9d85828601610a2d565b9150509250929050565b600080fd5b600080fd5b7f4e487b7100000000000000000000000000000000000000000000000000000000600052604160045260246000fd5b610de982610b26565b810181811067ffffffffffffffff82111715610e0857610e07610db1565b5b80604052505050565b6000610e1b6109f8565b9050610e278282610de0565b919050565b600067ffffffffffffffff821115610e4757610e46610db1565b5b610e5082610b26565b9050602081019050919050565b82818337600083830152505050565b6000610e7f610e7a84610e2c565b610e11565b905082815260208101848484011115610e9b57610e9a610dac565b5b610ea6848285610e5d565b509392505050565b600082601f830112610ec357610ec2610da7565b5b8135610ed3848260208601610e6c565b91505092915050565b600060208284031215610ef257610ef1610a02565b5b600082013567ffffffffffffffff811115610f1057610f0f610a07565b5b610f1c84828501610eae565b91505092915050565b7f506574277320696420697320696e76616c69642e000000000000000000000000600082015250565b6000610f5b601483610aeb565b9150610f6682610f25565b602082019050919050565b60006020820190508181036000830152610f8a81610f4e565b9050919050565b7f4e487b7100000000000000000000000000000000000000000000000000000000600052602260045260246000fd5b60006002820490506001821680610fd857607f821691505b602082108103610feb57610fea610f91565b5b50919050565b7f4e6f7420656e6f75676820746f6b656e73000000000000000000000000000000600082015250565b6000611027601183610aeb565b915061103282610ff1565b602082019050919050565b600060208201905081810360008301526110568161101a565b9050919050565b600081905092915050565b50565b600061107860008361105d565b915061108382611068565b600082019050919050565b60006110998261106b565b9150819050919050565b7f5769746864726177206661696c65642e00000000000000000000000000000000600082015250565b60006110d9601083610aeb565b91506110e4826110a3565b602082019050919050565b60006020820190508181036000830152611108816110cc565b9050919050565b60008190508160005260206000209050919050565b60006020601f8301049050919050565b600082821b905092915050565b6000600883026111717fffffffffffffffffffffffffffffffffffffffffffffffffffffffffffffffff82611134565b61117b8683611134565b95508019841693508086168417925050509392505050565b6000819050919050565b60006111b86111b36111ae84610a0c565b611193565b610a0c565b9050919050565b6000819050919050565b6111d28361119d565b6111e66111de826111bf565b848454611141565b825550505050565b600090565b6111fb6111ee565b6112068184846111c9565b505050565b5b8181101561122a5761121f6000826111f3565b60018101905061120c565b5050565b601f82111561126f576112408161110f565b61124984611124565b81016020851015611258578190505b61126c61126485611124565b83018261120b565b50505b505050565b600082821c905092915050565b600061129260001984600802611274565b1980831691505092915050565b60006112ab8383611281565b9150826002028217905092915050565b6112c482610ae0565b67ffffffffffffffff8111156112dd576112dc610db1565b5b6112e78254610fc0565b6112f282828561122e565b600060209050601f8311600181146113255760008415611313578287015190505b61131d858261129f565b865550611385565b601f1984166113338661110f565b60005b8281101561135b57848901518255600182019150602085019450602081019050611336565b868310156113785784890151611374601f891682611281565b8355505b6001600288020188555050505b505050505050565b7f5472616e73666572206661696c65640000000000000000000000000000000000600082015250565b60006113c3600f83610aeb565b91506113ce8261138d565b602082019050919050565b600060208201905081810360008301526113f2816113b6565b9050919050565b7f4e6f74206e756c6c000000000000000000000000000000000000000000000000600082015250565b600061142f600883610aeb565b915061143a826113f9565b602082019050919050565b6000602082019050818103600083015261145e81611422565b9050919050565b6000604082019050818103600083015261147f8185610b37565b905061148e6020830184610cd5565b939250505056fea2646970667358221220399b1c3aa166194b4e0647ba0d5a70986e7513a65b3d07741a70df7bb496f97d64736f6c63430008110033",
  "linkReferences": {},
  "deployedLinkReferences": {}
}