{
  "_format": "hh-sol-artifact-1",
  "contractName": "PetShop",
  "sourceName": "contracts/PetShop.sol",
  "abi": [
    {
      "inputs": [],
      "stateMutability": "nonpayable",
      "type": "constructor"
    },
    {
      "anonymous": false,
      "inputs": [
        {
          "indexed": true,
          "internalType": "address",
          "name": "from",
          "type": "address"
        },
        {
          "indexed": true,
          "internalType": "address",
          "name": "to",
          "type": "address"
        },
        {
          "indexed": false,
          "internalType": "uint256",
          "name": "value",
          "type": "uint256"
        }
      ],
      "name": "TransferEvent",
      "type": "event"
    },
    {
      "inputs": [
        {
          "internalType": "uint256",
          "name": "petId",
          "type": "uint256"
        },
        {
          "internalType": "address",
          "name": "from",
          "type": "address"
        }
      ],
      "name": "adopt",
      "outputs": [],
      "stateMutability": "payable",
      "type": "function"
    },
    {
      "inputs": [
        {
          "internalType": "uint256",
          "name": "",
          "type": "uint256"
        }
      ],
      "name": "adoptedPets",
      "outputs": [
        {
          "internalType": "uint256",
          "name": "",
          "type": "uint256"
        }
      ],
      "stateMutability": "view",
      "type": "function"
    },
    {
      "inputs": [],
      "name": "getAdoptedPets",
      "outputs": [
        {
          "internalType": "uint256[]",
          "name": "",
          "type": "uint256[]"
        }
      ],
      "stateMutability": "view",
      "type": "function"
    },
    {
      "inputs": [
        {
          "internalType": "uint256",
          "name": "petId",
          "type": "uint256"
        }
      ],
      "name": "isAdopted",
      "outputs": [
        {
          "internalType": "bool",
          "name": "",
          "type": "bool"
        }
      ],
      "stateMutability": "view",
      "type": "function"
    },
    {
      "inputs": [],
      "name": "owner",
      "outputs": [
        {
          "internalType": "address payable",
          "name": "",
          "type": "address"
        }
      ],
      "stateMutability": "view",
      "type": "function"
    },
    {
      "inputs": [
        {
          "internalType": "address",
          "name": "from",
          "type": "address"
        },
        {
          "internalType": "address",
          "name": "to",
          "type": "address"
        },
        {
          "internalType": "uint256",
          "name": "amount",
          "type": "uint256"
        }
      ],
      "name": "transfer",
      "outputs": [],
      "stateMutability": "payable",
      "type": "function"
    },
    {
      "inputs": [],
      "name": "withDraw",
      "outputs": [],
      "stateMutability": "nonpayable",
      "type": "function"
    }
  ],
  "bytecode": "0x608060405234801561001057600080fd5b50336000806101000a81548173ffffffffffffffffffffffffffffffffffffffff021916908373ffffffffffffffffffffffffffffffffffffffff160217905550610c72806100606000396000f3fe6080604052600436106100705760003560e01c8063535a30e41161004e578063535a30e4146100d35780637541475f146101105780638da5cb5b1461014d578063beabacc81461017857610070565b80630689093d146100755780630f46bdb1146100915780630fdb1c10146100bc575b600080fd5b61008f600480360381019061008a9190610822565b610194565b005b34801561009d57600080fd5b506100a661036f565b6040516100b39190610920565b60405180910390f35b3480156100c857600080fd5b506100d16103c7565b005b3480156100df57600080fd5b506100fa60048036038101906100f59190610942565b61050d565b604051610107919061097e565b60405180910390f35b34801561011c57600080fd5b5061013760048036038101906101329190610942565b610531565b60405161014491906109b4565b60405180910390f35b34801561015957600080fd5b5061016261055e565b60405161016f91906109f0565b60405180910390f35b610192600480360381019061018d9190610a0b565b610582565b005b60405180604001604052808273ffffffffffffffffffffffffffffffffffffffff168152602001600115158152506001600084815260200190815260200160002060008201518160000160006101000a81548173ffffffffffffffffffffffffffffffffffffffff021916908373ffffffffffffffffffffffffffffffffffffffff16021790555060208201518160000160146101000a81548160ff02191690831515021790555090505060028290806001815401808255809150506001900390600052602060002001600090919091909150556102de6040518060400160405280601b81526020017f6265666f72653a204f776e657227732062616c616e63653a202573000000000081525060008054906101000a900473ffffffffffffffffffffffffffffffffffffffff1673ffffffffffffffffffffffffffffffffffffffff16316106c4565b6102e66103c7565b8073ffffffffffffffffffffffffffffffffffffffff1660008054906101000a900473ffffffffffffffffffffffffffffffffffffffff1673ffffffffffffffffffffffffffffffffffffffff167feaf1c4b3ce0f4f62a2bae7eb3e68225c75f7e6ff4422073b7437b9a78d25f17084604051610363919061097e565b60405180910390a35050565b606060028054806020026020016040519081016040528092919081815260200182805480156103bd57602002820191906000526020600020905b8154815260200190600101908083116103a9575b5050505050905090565b60008060009054906101000a900473ffffffffffffffffffffffffffffffffffffffff1673ffffffffffffffffffffffffffffffffffffffff164760405161040e90610a8f565b60006040518083038185875af1925050503d806000811461044b576040519150601f19603f3d011682016040523d82523d6000602084013e610450565b606091505b5050905080610494576040517f08c379a000000000000000000000000000000000000000000000000000000000815260040161048b90610b01565b60405180910390fd5b61050a6040518060400160405280601a81526020017f61667465723a204f776e657227732062616c616e63653a20257300000000000081525060008054906101000a900473ffffffffffffffffffffffffffffffffffffffff1673ffffffffffffffffffffffffffffffffffffffff16316106c4565b50565b6002818154811061051d57600080fd5b906000526020600020016000915090505481565b60006001600083815260200190815260200160002060000160149054906101000a900460ff169050919050565b60008054906101000a900473ffffffffffffffffffffffffffffffffffffffff1681565b6106006040518060400160405280600d81526020017f7472616e736665723a3a20257300000000000000000000000000000000000000815250600360003373ffffffffffffffffffffffffffffffffffffffff1673ffffffffffffffffffffffffffffffffffffffff168152602001908152602001600020546106c4565b808373ffffffffffffffffffffffffffffffffffffffff1631101561065a576040517f08c379a000000000000000000000000000000000000000000000000000000000815260040161065190610b6d565b60405180910390fd5b8173ffffffffffffffffffffffffffffffffffffffff163373ffffffffffffffffffffffffffffffffffffffff167feaf1c4b3ce0f4f62a2bae7eb3e68225c75f7e6ff4422073b7437b9a78d25f170836040516106b7919061097e565b60405180910390a3505050565b61075c82826040516024016106da929190610c0c565b6040516020818303038152906040527fb60e72cc000000000000000000000000000000000000000000000000000000007bffffffffffffffffffffffffffffffffffffffffffffffffffffffff19166020820180517bffffffffffffffffffffffffffffffffffffffffffffffffffffffff8381831617835250505050610760565b5050565b60008151905060006a636f6e736f6c652e6c6f679050602083016000808483855afa5050505050565b600080fd5b6000819050919050565b6107a18161078e565b81146107ac57600080fd5b50565b6000813590506107be81610798565b92915050565b600073ffffffffffffffffffffffffffffffffffffffff82169050919050565b60006107ef826107c4565b9050919050565b6107ff816107e4565b811461080a57600080fd5b50565b60008135905061081c816107f6565b92915050565b6000806040838503121561083957610838610789565b5b6000610847858286016107af565b92505060206108588582860161080d565b9150509250929050565b600081519050919050565b600082825260208201905092915050565b6000819050602082019050919050565b6108978161078e565b82525050565b60006108a9838361088e565b60208301905092915050565b6000602082019050919050565b60006108cd82610862565b6108d7818561086d565b93506108e28361087e565b8060005b838110156109135781516108fa888261089d565b9750610905836108b5565b9250506001810190506108e6565b5085935050505092915050565b6000602082019050818103600083015261093a81846108c2565b905092915050565b60006020828403121561095857610957610789565b5b6000610966848285016107af565b91505092915050565b6109788161078e565b82525050565b6000602082019050610993600083018461096f565b92915050565b60008115159050919050565b6109ae81610999565b82525050565b60006020820190506109c960008301846109a5565b92915050565b60006109da826107c4565b9050919050565b6109ea816109cf565b82525050565b6000602082019050610a0560008301846109e1565b92915050565b600080600060608486031215610a2457610a23610789565b5b6000610a328682870161080d565b9350506020610a438682870161080d565b9250506040610a54868287016107af565b9150509250925092565b600081905092915050565b50565b6000610a79600083610a5e565b9150610a8482610a69565b600082019050919050565b6000610a9a82610a6c565b9150819050919050565b600082825260208201905092915050565b7f5472616e73666572206661696c65642e00000000000000000000000000000000600082015250565b6000610aeb601083610aa4565b9150610af682610ab5565b602082019050919050565b60006020820190508181036000830152610b1a81610ade565b9050919050565b7f4e6f7420656e6f75676820746f6b656e73000000000000000000000000000000600082015250565b6000610b57601183610aa4565b9150610b6282610b21565b602082019050919050565b60006020820190508181036000830152610b8681610b4a565b9050919050565b600081519050919050565b60005b83811015610bb6578082015181840152602081019050610b9b565b60008484015250505050565b6000601f19601f8301169050919050565b6000610bde82610b8d565b610be88185610aa4565b9350610bf8818560208601610b98565b610c0181610bc2565b840191505092915050565b60006040820190508181036000830152610c268185610bd3565b9050610c35602083018461096f565b939250505056fea2646970667358221220cc393aff84503bb9407e74f1b6d71f70689ae99991b494981d921c104c66d18264736f6c63430008110033",
  "linkReferences": {},
  "deployedLinkReferences": {},
  "address": "0xA3abbDA93A850758F85598A47cf186C0BCA085aC"
}