{
  "_format": "hh-sol-artifact-1",
  "contractName": "PetShop",
  "sourceName": "contracts/PetShop.sol",
  "abi": [
    {
      "anonymous": false,
      "inputs": [
        {
          "indexed": true,
          "internalType": "address",
          "name": "from",
          "type": "address"
        },
        {
          "indexed": true,
          "internalType": "address",
          "name": "to",
          "type": "address"
        },
        {
          "indexed": false,
          "internalType": "uint256",
          "name": "value",
          "type": "uint256"
        }
      ],
      "name": "TransferEvent",
      "type": "event"
    },
    {
      "inputs": [
        {
          "internalType": "uint256",
          "name": "petId",
          "type": "uint256"
        },
        {
          "internalType": "address",
          "name": "adoptedAddr",
          "type": "address"
        }
      ],
      "name": "adopt",
      "outputs": [],
      "stateMutability": "payable",
      "type": "function"
    },
    {
      "inputs": [
        {
          "internalType": "uint256",
          "name": "",
          "type": "uint256"
        }
      ],
      "name": "adoptedPets",
      "outputs": [
        {
          "internalType": "uint256",
          "name": "",
          "type": "uint256"
        }
      ],
      "stateMutability": "view",
      "type": "function"
    },
    {
      "inputs": [],
      "name": "getAdoptedPets",
      "outputs": [
        {
          "internalType": "uint256[]",
          "name": "",
          "type": "uint256[]"
        }
      ],
      "stateMutability": "view",
      "type": "function"
    },
    {
      "inputs": [],
      "name": "getBalance",
      "outputs": [
        {
          "internalType": "uint256",
          "name": "",
          "type": "uint256"
        }
      ],
      "stateMutability": "view",
      "type": "function"
    },
    {
      "inputs": [
        {
          "internalType": "uint256",
          "name": "petId",
          "type": "uint256"
        }
      ],
      "name": "isAdopted",
      "outputs": [
        {
          "internalType": "bool",
          "name": "",
          "type": "bool"
        }
      ],
      "stateMutability": "view",
      "type": "function"
    },
    {
      "inputs": [],
      "name": "name",
      "outputs": [
        {
          "internalType": "string",
          "name": "",
          "type": "string"
        }
      ],
      "stateMutability": "view",
      "type": "function"
    },
    {
      "inputs": [],
      "name": "owner",
      "outputs": [
        {
          "internalType": "address payable",
          "name": "",
          "type": "address"
        }
      ],
      "stateMutability": "view",
      "type": "function"
    },
    {
      "inputs": [],
      "name": "setOwner",
      "outputs": [],
      "stateMutability": "nonpayable",
      "type": "function"
    },
    {
      "inputs": [
        {
          "internalType": "address payable",
          "name": "to",
          "type": "address"
        },
        {
          "internalType": "uint256",
          "name": "amount",
          "type": "uint256"
        }
      ],
      "name": "transfer",
      "outputs": [],
      "stateMutability": "nonpayable",
      "type": "function"
    },
    {
      "inputs": [],
      "name": "withDraw",
      "outputs": [],
      "stateMutability": "nonpayable",
      "type": "function"
    }
  ],
  "bytecode": "0x608060405234801561001057600080fd5b5061125b806100206000396000f3fe6080604052600436106100915760003560e01c806340caae061161005957806340caae061461014a578063535a30e4146101615780637541475f1461019e5780638da5cb5b146101db578063a9059cbb1461020657610091565b80630689093d1461009657806306fdde03146100b25780630f46bdb1146100dd5780630fdb1c101461010857806312065fe01461011f575b600080fd5b6100b060048036038101906100ab91906109eb565b61022f565b005b3480156100be57600080fd5b506100c76103d2565b6040516100d49190610abb565b60405180910390f35b3480156100e957600080fd5b506100f2610460565b6040516100ff9190610b9b565b60405180910390f35b34801561011457600080fd5b5061011d6104b8565b005b34801561012b57600080fd5b506101346105cc565b6040516101419190610bcc565b60405180910390f35b34801561015657600080fd5b5061015f6105d4565b005b34801561016d57600080fd5b5061018860048036038101906101839190610be7565b61065c565b6040516101959190610bcc565b60405180910390f35b3480156101aa57600080fd5b506101c560048036038101906101c09190610be7565b610680565b6040516101d29190610c2f565b60405180910390f35b3480156101e757600080fd5b506101f06106ad565b6040516101fd9190610c6b565b60405180910390f35b34801561021257600080fd5b5061022d60048036038101906102289190610cb2565b6106d3565b005b6000821015610273576040517f08c379a000000000000000000000000000000000000000000000000000000000815260040161026a90610d3e565b60405180910390fd5b60405180604001604052808273ffffffffffffffffffffffffffffffffffffffff168152602001600115158152506002600084815260200190815260200160002060008201518160000160006101000a81548173ffffffffffffffffffffffffffffffffffffffff021916908373ffffffffffffffffffffffffffffffffffffffff16021790555060208201518160000160146101000a81548160ff0219169083151502179055509050506003829080600181540180825580915050600190039060005260206000200160009091909190915055600160009054906101000a900473ffffffffffffffffffffffffffffffffffffffff1673ffffffffffffffffffffffffffffffffffffffff168173ffffffffffffffffffffffffffffffffffffffff167feaf1c4b3ce0f4f62a2bae7eb3e68225c75f7e6ff4422073b7437b9a78d25f170846040516103c69190610bcc565b60405180910390a35050565b600080546103df90610d8d565b80601f016020809104026020016040519081016040528092919081815260200182805461040b90610d8d565b80156104585780601f1061042d57610100808354040283529160200191610458565b820191906000526020600020905b81548152906001019060200180831161043b57829003601f168201915b505050505081565b606060038054806020026020016040519081016040528092919081815260200182805480156104ae57602002820191906000526020600020905b81548152602001906001019080831161049a575b5050505050905090565b600047116104fb576040517f08c379a00000000000000000000000000000000000000000000000000000000081526004016104f290610e0a565b60405180910390fd5b6000600160009054906101000a900473ffffffffffffffffffffffffffffffffffffffff1673ffffffffffffffffffffffffffffffffffffffff164760405161054390610e5b565b60006040518083038185875af1925050503d8060008114610580576040519150601f19603f3d011682016040523d82523d6000602084013e610585565b606091505b50509050806105c9576040517f08c379a00000000000000000000000000000000000000000000000000000000081526004016105c090610ebc565b60405180910390fd5b50565b600047905090565b6040518060400160405280601081526020017f44657669652773205065742053686f70000000000000000000000000000000008152506000908161061891906110b7565b5033600160006101000a81548173ffffffffffffffffffffffffffffffffffffffff021916908373ffffffffffffffffffffffffffffffffffffffff160217905550565b6003818154811061066c57600080fd5b906000526020600020016000915090505481565b60006002600083815260200190815260200160002060000160149054906101000a900460ff169050919050565b600160009054906101000a900473ffffffffffffffffffffffffffffffffffffffff1681565b60004711610716576040517f08c379a000000000000000000000000000000000000000000000000000000000815260040161070d90610e0a565b60405180910390fd5b60008273ffffffffffffffffffffffffffffffffffffffff168260405161073c90610e5b565b60006040518083038185875af1925050503d8060008114610779576040519150601f19603f3d011682016040523d82523d6000602084013e61077e565b606091505b505090506107c16040518060400160405280600a81526020017f726573756c743a202573000000000000000000000000000000000000000000008152508261088d565b80610801576040517f08c379a00000000000000000000000000000000000000000000000000000000081526004016107f8906111d5565b60405180910390fd5b8273ffffffffffffffffffffffffffffffffffffffff16600160009054906101000a900473ffffffffffffffffffffffffffffffffffffffff1673ffffffffffffffffffffffffffffffffffffffff167feaf1c4b3ce0f4f62a2bae7eb3e68225c75f7e6ff4422073b7437b9a78d25f170846040516108809190610bcc565b60405180910390a3505050565b61092582826040516024016108a39291906111f5565b6040516020818303038152906040527fc3b55635000000000000000000000000000000000000000000000000000000007bffffffffffffffffffffffffffffffffffffffffffffffffffffffff19166020820180517bffffffffffffffffffffffffffffffffffffffffffffffffffffffff8381831617835250505050610929565b5050565b60008151905060006a636f6e736f6c652e6c6f679050602083016000808483855afa5050505050565b600080fd5b6000819050919050565b61096a81610957565b811461097557600080fd5b50565b60008135905061098781610961565b92915050565b600073ffffffffffffffffffffffffffffffffffffffff82169050919050565b60006109b88261098d565b9050919050565b6109c8816109ad565b81146109d357600080fd5b50565b6000813590506109e5816109bf565b92915050565b60008060408385031215610a0257610a01610952565b5b6000610a1085828601610978565b9250506020610a21858286016109d6565b9150509250929050565b600081519050919050565b600082825260208201905092915050565b60005b83811015610a65578082015181840152602081019050610a4a565b60008484015250505050565b6000601f19601f8301169050919050565b6000610a8d82610a2b565b610a978185610a36565b9350610aa7818560208601610a47565b610ab081610a71565b840191505092915050565b60006020820190508181036000830152610ad58184610a82565b905092915050565b600081519050919050565b600082825260208201905092915050565b6000819050602082019050919050565b610b1281610957565b82525050565b6000610b248383610b09565b60208301905092915050565b6000602082019050919050565b6000610b4882610add565b610b528185610ae8565b9350610b5d83610af9565b8060005b83811015610b8e578151610b758882610b18565b9750610b8083610b30565b925050600181019050610b61565b5085935050505092915050565b60006020820190508181036000830152610bb58184610b3d565b905092915050565b610bc681610957565b82525050565b6000602082019050610be16000830184610bbd565b92915050565b600060208284031215610bfd57610bfc610952565b5b6000610c0b84828501610978565b91505092915050565b60008115159050919050565b610c2981610c14565b82525050565b6000602082019050610c446000830184610c20565b92915050565b6000610c558261098d565b9050919050565b610c6581610c4a565b82525050565b6000602082019050610c806000830184610c5c565b92915050565b610c8f81610c4a565b8114610c9a57600080fd5b50565b600081359050610cac81610c86565b92915050565b60008060408385031215610cc957610cc8610952565b5b6000610cd785828601610c9d565b9250506020610ce885828601610978565b9150509250929050565b7f506574277320696420697320696e76616c69642e000000000000000000000000600082015250565b6000610d28601483610a36565b9150610d3382610cf2565b602082019050919050565b60006020820190508181036000830152610d5781610d1b565b9050919050565b7f4e487b7100000000000000000000000000000000000000000000000000000000600052602260045260246000fd5b60006002820490506001821680610da557607f821691505b602082108103610db857610db7610d5e565b5b50919050565b7f4e6f7420656e6f75676820746f6b656e73000000000000000000000000000000600082015250565b6000610df4601183610a36565b9150610dff82610dbe565b602082019050919050565b60006020820190508181036000830152610e2381610de7565b9050919050565b600081905092915050565b50565b6000610e45600083610e2a565b9150610e5082610e35565b600082019050919050565b6000610e6682610e38565b9150819050919050565b7f5769746864726177206661696c65642e00000000000000000000000000000000600082015250565b6000610ea6601083610a36565b9150610eb182610e70565b602082019050919050565b60006020820190508181036000830152610ed581610e99565b9050919050565b7f4e487b7100000000000000000000000000000000000000000000000000000000600052604160045260246000fd5b60008190508160005260206000209050919050565b60006020601f8301049050919050565b600082821b905092915050565b600060088302610f6d7fffffffffffffffffffffffffffffffffffffffffffffffffffffffffffffffff82610f30565b610f778683610f30565b95508019841693508086168417925050509392505050565b6000819050919050565b6000610fb4610faf610faa84610957565b610f8f565b610957565b9050919050565b6000819050919050565b610fce83610f99565b610fe2610fda82610fbb565b848454610f3d565b825550505050565b600090565b610ff7610fea565b611002818484610fc5565b505050565b5b818110156110265761101b600082610fef565b600181019050611008565b5050565b601f82111561106b5761103c81610f0b565b61104584610f20565b81016020851015611054578190505b61106861106085610f20565b830182611007565b50505b505050565b600082821c905092915050565b600061108e60001984600802611070565b1980831691505092915050565b60006110a7838361107d565b9150826002028217905092915050565b6110c082610a2b565b67ffffffffffffffff8111156110d9576110d8610edc565b5b6110e38254610d8d565b6110ee82828561102a565b600060209050601f831160018114611121576000841561110f578287015190505b611119858261109b565b865550611181565b601f19841661112f86610f0b565b60005b8281101561115757848901518255600182019150602085019450602081019050611132565b868310156111745784890151611170601f89168261107d565b8355505b6001600288020188555050505b505050505050565b7f5472616e73666572206661696c65640000000000000000000000000000000000600082015250565b60006111bf600f83610a36565b91506111ca82611189565b602082019050919050565b600060208201905081810360008301526111ee816111b2565b9050919050565b6000604082019050818103600083015261120f8185610a82565b905061121e6020830184610c20565b939250505056fea2646970667358221220d304b50e3bc5ade0b1147c9588f0c8b3d8f905465aec7ac154bcbe166126c24c64736f6c63430008110033",
  "linkReferences": {},
  "deployedLinkReferences": {}
}