{
  "_format": "hh-sol-artifact-1",
  "contractName": "PetShop",
  "sourceName": "contracts/PetShop.sol",
  "abi": [
    {
      "anonymous": false,
      "inputs": [
        {
          "indexed": true,
          "internalType": "address",
          "name": "from",
          "type": "address"
        },
        {
          "indexed": true,
          "internalType": "address",
          "name": "to",
          "type": "address"
        },
        {
          "indexed": false,
          "internalType": "uint256",
          "name": "value",
          "type": "uint256"
        }
      ],
      "name": "TransferEvent",
      "type": "event"
    },
    {
      "inputs": [
        {
          "internalType": "uint256",
          "name": "petId",
          "type": "uint256"
        },
        {
          "internalType": "address",
          "name": "adoptedAddr",
          "type": "address"
        }
      ],
      "name": "adopt",
      "outputs": [],
      "stateMutability": "payable",
      "type": "function"
    },
    {
      "inputs": [
        {
          "internalType": "uint256",
          "name": "",
          "type": "uint256"
        }
      ],
      "name": "adoptedPets",
      "outputs": [
        {
          "internalType": "uint256",
          "name": "",
          "type": "uint256"
        }
      ],
      "stateMutability": "view",
      "type": "function"
    },
    {
      "inputs": [],
      "name": "getAdoptedPets",
      "outputs": [
        {
          "internalType": "uint256[]",
          "name": "",
          "type": "uint256[]"
        }
      ],
      "stateMutability": "view",
      "type": "function"
    },
    {
      "inputs": [],
      "name": "getBalance",
      "outputs": [
        {
          "internalType": "uint256",
          "name": "",
          "type": "uint256"
        }
      ],
      "stateMutability": "view",
      "type": "function"
    },
    {
      "inputs": [
        {
          "internalType": "uint256",
          "name": "petId",
          "type": "uint256"
        }
      ],
      "name": "isAdopted",
      "outputs": [
        {
          "internalType": "bool",
          "name": "",
          "type": "bool"
        }
      ],
      "stateMutability": "view",
      "type": "function"
    },
    {
      "inputs": [],
      "name": "owner",
      "outputs": [
        {
          "internalType": "address payable",
          "name": "",
          "type": "address"
        }
      ],
      "stateMutability": "view",
      "type": "function"
    },
    {
      "inputs": [],
      "name": "setOwner",
      "outputs": [],
      "stateMutability": "nonpayable",
      "type": "function"
    },
    {
      "inputs": [
        {
          "internalType": "address payable",
          "name": "to",
          "type": "address"
        },
        {
          "internalType": "uint256",
          "name": "amount",
          "type": "uint256"
        }
      ],
      "name": "transfer",
      "outputs": [],
      "stateMutability": "nonpayable",
      "type": "function"
    },
    {
      "inputs": [],
      "name": "withDraw",
      "outputs": [],
      "stateMutability": "nonpayable",
      "type": "function"
    }
  ],
  "bytecode": "0x608060405234801561001057600080fd5b50610e23806100206000396000f3fe6080604052600436106100865760003560e01c806340caae061161005957806340caae0614610114578063535a30e41461012b5780637541475f146101685780638da5cb5b146101a5578063a9059cbb146101d057610086565b80630689093d1461008b5780630f46bdb1146100a75780630fdb1c10146100d257806312065fe0146100e9575b600080fd5b6100a560048036038101906100a091906108e2565b6101f9565b005b3480156100b357600080fd5b506100bc61039c565b6040516100c991906109e0565b60405180910390f35b3480156100de57600080fd5b506100e76103f4565b005b3480156100f557600080fd5b506100fe610508565b60405161010b9190610a11565b60405180910390f35b34801561012057600080fd5b50610129610510565b005b34801561013757600080fd5b50610152600480360381019061014d9190610a2c565b610553565b60405161015f9190610a11565b60405180910390f35b34801561017457600080fd5b5061018f600480360381019061018a9190610a2c565b610577565b60405161019c9190610a74565b60405180910390f35b3480156101b157600080fd5b506101ba6105a4565b6040516101c79190610ab0565b60405180910390f35b3480156101dc57600080fd5b506101f760048036038101906101f29190610af7565b6105ca565b005b600082101561023d576040517f08c379a000000000000000000000000000000000000000000000000000000000815260040161023490610b94565b60405180910390fd5b60405180604001604052808273ffffffffffffffffffffffffffffffffffffffff168152602001600115158152506002600084815260200190815260200160002060008201518160000160006101000a81548173ffffffffffffffffffffffffffffffffffffffff021916908373ffffffffffffffffffffffffffffffffffffffff16021790555060208201518160000160146101000a81548160ff0219169083151502179055509050506003829080600181540180825580915050600190039060005260206000200160009091909190915055600160009054906101000a900473ffffffffffffffffffffffffffffffffffffffff1673ffffffffffffffffffffffffffffffffffffffff168173ffffffffffffffffffffffffffffffffffffffff167feaf1c4b3ce0f4f62a2bae7eb3e68225c75f7e6ff4422073b7437b9a78d25f170846040516103909190610a11565b60405180910390a35050565b606060038054806020026020016040519081016040528092919081815260200182805480156103ea57602002820191906000526020600020905b8154815260200190600101908083116103d6575b5050505050905090565b60004711610437576040517f08c379a000000000000000000000000000000000000000000000000000000000815260040161042e90610c00565b60405180910390fd5b6000600160009054906101000a900473ffffffffffffffffffffffffffffffffffffffff1673ffffffffffffffffffffffffffffffffffffffff164760405161047f90610c51565b60006040518083038185875af1925050503d80600081146104bc576040519150601f19603f3d011682016040523d82523d6000602084013e6104c1565b606091505b5050905080610505576040517f08c379a00000000000000000000000000000000000000000000000000000000081526004016104fc90610cb2565b60405180910390fd5b50565b600047905090565b33600160006101000a81548173ffffffffffffffffffffffffffffffffffffffff021916908373ffffffffffffffffffffffffffffffffffffffff160217905550565b6003818154811061056357600080fd5b906000526020600020016000915090505481565b60006002600083815260200190815260200160002060000160149054906101000a900460ff169050919050565b600160009054906101000a900473ffffffffffffffffffffffffffffffffffffffff1681565b6000471161060d576040517f08c379a000000000000000000000000000000000000000000000000000000000815260040161060490610c00565b60405180910390fd5b60008273ffffffffffffffffffffffffffffffffffffffff168260405161063390610c51565b60006040518083038185875af1925050503d8060008114610670576040519150601f19603f3d011682016040523d82523d6000602084013e610675565b606091505b505090506106b86040518060400160405280600a81526020017f726573756c743a2025730000000000000000000000000000000000000000000081525082610784565b806106f8576040517f08c379a00000000000000000000000000000000000000000000000000000000081526004016106ef90610d1e565b60405180910390fd5b8273ffffffffffffffffffffffffffffffffffffffff16600160009054906101000a900473ffffffffffffffffffffffffffffffffffffffff1673ffffffffffffffffffffffffffffffffffffffff167feaf1c4b3ce0f4f62a2bae7eb3e68225c75f7e6ff4422073b7437b9a78d25f170846040516107779190610a11565b60405180910390a3505050565b61081c828260405160240161079a929190610dbd565b6040516020818303038152906040527fc3b55635000000000000000000000000000000000000000000000000000000007bffffffffffffffffffffffffffffffffffffffffffffffffffffffff19166020820180517bffffffffffffffffffffffffffffffffffffffffffffffffffffffff8381831617835250505050610820565b5050565b60008151905060006a636f6e736f6c652e6c6f679050602083016000808483855afa5050505050565b600080fd5b6000819050919050565b6108618161084e565b811461086c57600080fd5b50565b60008135905061087e81610858565b92915050565b600073ffffffffffffffffffffffffffffffffffffffff82169050919050565b60006108af82610884565b9050919050565b6108bf816108a4565b81146108ca57600080fd5b50565b6000813590506108dc816108b6565b92915050565b600080604083850312156108f9576108f8610849565b5b60006109078582860161086f565b9250506020610918858286016108cd565b9150509250929050565b600081519050919050565b600082825260208201905092915050565b6000819050602082019050919050565b6109578161084e565b82525050565b6000610969838361094e565b60208301905092915050565b6000602082019050919050565b600061098d82610922565b610997818561092d565b93506109a28361093e565b8060005b838110156109d35781516109ba888261095d565b97506109c583610975565b9250506001810190506109a6565b5085935050505092915050565b600060208201905081810360008301526109fa8184610982565b905092915050565b610a0b8161084e565b82525050565b6000602082019050610a266000830184610a02565b92915050565b600060208284031215610a4257610a41610849565b5b6000610a508482850161086f565b91505092915050565b60008115159050919050565b610a6e81610a59565b82525050565b6000602082019050610a896000830184610a65565b92915050565b6000610a9a82610884565b9050919050565b610aaa81610a8f565b82525050565b6000602082019050610ac56000830184610aa1565b92915050565b610ad481610a8f565b8114610adf57600080fd5b50565b600081359050610af181610acb565b92915050565b60008060408385031215610b0e57610b0d610849565b5b6000610b1c85828601610ae2565b9250506020610b2d8582860161086f565b9150509250929050565b600082825260208201905092915050565b7f506574277320696420697320696e76616c69642e000000000000000000000000600082015250565b6000610b7e601483610b37565b9150610b8982610b48565b602082019050919050565b60006020820190508181036000830152610bad81610b71565b9050919050565b7f4e6f7420656e6f75676820746f6b656e73000000000000000000000000000000600082015250565b6000610bea601183610b37565b9150610bf582610bb4565b602082019050919050565b60006020820190508181036000830152610c1981610bdd565b9050919050565b600081905092915050565b50565b6000610c3b600083610c20565b9150610c4682610c2b565b600082019050919050565b6000610c5c82610c2e565b9150819050919050565b7f5769746864726177206661696c65642e00000000000000000000000000000000600082015250565b6000610c9c601083610b37565b9150610ca782610c66565b602082019050919050565b60006020820190508181036000830152610ccb81610c8f565b9050919050565b7f5472616e73666572206661696c65640000000000000000000000000000000000600082015250565b6000610d08600f83610b37565b9150610d1382610cd2565b602082019050919050565b60006020820190508181036000830152610d3781610cfb565b9050919050565b600081519050919050565b60005b83811015610d67578082015181840152602081019050610d4c565b60008484015250505050565b6000601f19601f8301169050919050565b6000610d8f82610d3e565b610d998185610b37565b9350610da9818560208601610d49565b610db281610d73565b840191505092915050565b60006040820190508181036000830152610dd78185610d84565b9050610de66020830184610a65565b939250505056fea2646970667358221220599c2efc2ecb598695fa83e57a9e13a45957a01b777e946f46c71f64628f325664736f6c63430008110033",
  "linkReferences": {},
  "deployedLinkReferences": {},
  "address": "0xCf7Ed3AccA5a467e9e704C703E8D87F634fB0Fc9"
}